{
  "_format": "hh-sol-artifact-1",
  "contractName": "Token",
  "sourceName": "contracts/Token.sol",
  "abi": [
    {
      "inputs": [
        {
          "internalType": "string",
          "name": "_name",
          "type": "string"
        },
        {
          "internalType": "string",
          "name": "_symbol",
          "type": "string"
        }
      ],
      "stateMutability": "nonpayable",
      "type": "constructor"
    },
    {
      "anonymous": false,
      "inputs": [
        {
          "indexed": true,
          "internalType": "address",
          "name": "owner",
          "type": "address"
        },
        {
          "indexed": true,
          "internalType": "address",
          "name": "spender",
          "type": "address"
        },
        {
          "indexed": false,
          "internalType": "uint256",
          "name": "value",
          "type": "uint256"
        }
      ],
      "name": "Approval",
      "type": "event"
    },
    {
      "anonymous": false,
      "inputs": [
        {
          "indexed": true,
          "internalType": "address",
          "name": "previousOwner",
          "type": "address"
        },
        {
          "indexed": true,
          "internalType": "address",
          "name": "newOwner",
          "type": "address"
        }
      ],
      "name": "OwnershipTransferred",
      "type": "event"
    },
    {
      "anonymous": false,
      "inputs": [
        {
          "indexed": true,
          "internalType": "address",
          "name": "from",
          "type": "address"
        },
        {
          "indexed": true,
          "internalType": "address",
          "name": "to",
          "type": "address"
        },
        {
          "indexed": false,
          "internalType": "uint256",
          "name": "value",
          "type": "uint256"
        }
      ],
      "name": "Transfer",
      "type": "event"
    },
    {
      "inputs": [
        {
          "internalType": "address",
          "name": "owner",
          "type": "address"
        },
        {
          "internalType": "address",
          "name": "spender",
          "type": "address"
        }
      ],
      "name": "allowance",
      "outputs": [
        {
          "internalType": "uint256",
          "name": "",
          "type": "uint256"
        }
      ],
      "stateMutability": "view",
      "type": "function"
    },
    {
      "inputs": [
        {
          "internalType": "address",
          "name": "spender",
          "type": "address"
        },
        {
          "internalType": "uint256",
          "name": "amount",
          "type": "uint256"
        }
      ],
      "name": "approve",
      "outputs": [
        {
          "internalType": "bool",
          "name": "",
          "type": "bool"
        }
      ],
      "stateMutability": "nonpayable",
      "type": "function"
    },
    {
      "inputs": [
        {
          "internalType": "address",
          "name": "account",
          "type": "address"
        }
      ],
      "name": "balanceOf",
      "outputs": [
        {
          "internalType": "uint256",
          "name": "",
          "type": "uint256"
        }
      ],
      "stateMutability": "view",
      "type": "function"
    },
    {
      "inputs": [],
      "name": "blockListing",
      "outputs": [
        {
          "internalType": "uint256",
          "name": "",
          "type": "uint256"
        }
      ],
      "stateMutability": "view",
      "type": "function"
    },
    {
      "inputs": [],
      "name": "decimals",
      "outputs": [
        {
          "internalType": "uint8",
          "name": "",
          "type": "uint8"
        }
      ],
      "stateMutability": "view",
      "type": "function"
    },
    {
      "inputs": [
        {
          "internalType": "address",
          "name": "spender",
          "type": "address"
        },
        {
          "internalType": "uint256",
          "name": "subtractedValue",
          "type": "uint256"
        }
      ],
      "name": "decreaseAllowance",
      "outputs": [
        {
          "internalType": "bool",
          "name": "",
          "type": "bool"
        }
      ],
      "stateMutability": "nonpayable",
      "type": "function"
    },
    {
      "inputs": [],
      "name": "factory",
      "outputs": [
        {
          "internalType": "address",
          "name": "",
          "type": "address"
        }
      ],
      "stateMutability": "view",
      "type": "function"
    },
    {
      "inputs": [],
      "name": "getBlockNumber",
      "outputs": [
        {
          "internalType": "uint256",
          "name": "",
          "type": "uint256"
        }
      ],
      "stateMutability": "view",
      "type": "function"
    },
    {
      "inputs": [
        {
          "internalType": "address",
          "name": "spender",
          "type": "address"
        },
        {
          "internalType": "uint256",
          "name": "addedValue",
          "type": "uint256"
        }
      ],
      "name": "increaseAllowance",
      "outputs": [
        {
          "internalType": "bool",
          "name": "",
          "type": "bool"
        }
      ],
      "stateMutability": "nonpayable",
      "type": "function"
    },
    {
      "inputs": [],
      "name": "isOpen",
      "outputs": [
        {
          "internalType": "bool",
          "name": "",
          "type": "bool"
        }
      ],
      "stateMutability": "view",
      "type": "function"
    },
    {
      "inputs": [
        {
          "internalType": "uint256",
          "name": "_lpToken",
          "type": "uint256"
        }
      ],
      "name": "listing",
      "outputs": [],
      "stateMutability": "payable",
      "type": "function"
    },
    {
      "inputs": [],
      "name": "name",
      "outputs": [
        {
          "internalType": "string",
          "name": "",
          "type": "string"
        }
      ],
      "stateMutability": "view",
      "type": "function"
    },
    {
      "inputs": [],
      "name": "owner",
      "outputs": [
        {
          "internalType": "address",
          "name": "",
          "type": "address"
        }
      ],
      "stateMutability": "view",
      "type": "function"
    },
    {
      "inputs": [],
      "name": "pair",
      "outputs": [
        {
          "internalType": "address",
          "name": "",
          "type": "address"
        }
      ],
      "stateMutability": "view",
      "type": "function"
    },
    {
      "inputs": [],
      "name": "renounceOwnership",
      "outputs": [],
      "stateMutability": "nonpayable",
      "type": "function"
    },
    {
      "inputs": [],
      "name": "router",
      "outputs": [
        {
          "internalType": "address",
          "name": "",
          "type": "address"
        }
      ],
      "stateMutability": "view",
      "type": "function"
    },
    {
      "inputs": [
        {
          "internalType": "address",
          "name": "_wallet",
          "type": "address"
        }
      ],
      "name": "setFeeWallet",
      "outputs": [],
      "stateMutability": "nonpayable",
      "type": "function"
    },
    {
      "inputs": [],
      "name": "symbol",
      "outputs": [
        {
          "internalType": "string",
          "name": "",
          "type": "string"
        }
      ],
      "stateMutability": "view",
      "type": "function"
    },
    {
      "inputs": [],
      "name": "totalSupply",
      "outputs": [
        {
          "internalType": "uint256",
          "name": "",
          "type": "uint256"
        }
      ],
      "stateMutability": "view",
      "type": "function"
    },
    {
      "inputs": [
        {
          "internalType": "address",
          "name": "to",
          "type": "address"
        },
        {
          "internalType": "uint256",
          "name": "amount",
          "type": "uint256"
        }
      ],
      "name": "transfer",
      "outputs": [
        {
          "internalType": "bool",
          "name": "",
          "type": "bool"
        }
      ],
      "stateMutability": "nonpayable",
      "type": "function"
    },
    {
      "inputs": [
        {
          "internalType": "address",
          "name": "from",
          "type": "address"
        },
        {
          "internalType": "address",
          "name": "to",
          "type": "address"
        },
        {
          "internalType": "uint256",
          "name": "amount",
          "type": "uint256"
        }
      ],
      "name": "transferFrom",
      "outputs": [
        {
          "internalType": "bool",
          "name": "",
          "type": "bool"
        }
      ],
      "stateMutability": "nonpayable",
      "type": "function"
    },
    {
      "inputs": [
        {
          "internalType": "address",
          "name": "newOwner",
          "type": "address"
        }
      ],
      "name": "transferOwnership",
      "outputs": [],
      "stateMutability": "nonpayable",
      "type": "function"
    },
    {
      "inputs": [
        {
          "internalType": "address",
          "name": "_token",
          "type": "address"
        }
      ],
      "name": "withdrawEmergency",
      "outputs": [],
      "stateMutability": "payable",
      "type": "function"
    }
  ],
  "bytecode": "0x60806040523480156200001157600080fd5b506040516200175c3803806200175c83398101604081905262000034916200032f565b8151829082906200004d906003906020850190620001bc565b50805162000063906004906020840190620001bc565b505050620000806200007a620000a060201b60201c565b620000a4565b62000098336b033b2e3c9fd0803ce8000000620000f6565b5050620003fd565b3390565b600580546001600160a01b038381166001600160a01b0319831681179093556040519116919082907f8be0079c531659141344cd1fd0a4f28419497f9722a3daafe3b4186f6b6457e090600090a35050565b6001600160a01b038216620001515760405162461bcd60e51b815260206004820152601f60248201527f45524332303a206d696e7420746f20746865207a65726f206164647265737300604482015260640160405180910390fd5b806002600082825462000165919062000399565b90915550506001600160a01b038216600081815260208181526040808320805486019055518481527fddf252ad1be2c89b69c2b068fc378daa952ba7f163c4a11628f55a4df523b3ef910160405180910390a35050565b828054620001ca90620003c0565b90600052602060002090601f016020900481019282620001ee576000855562000239565b82601f106200020957805160ff191683800117855562000239565b8280016001018555821562000239579182015b82811115620002395782518255916020019190600101906200021c565b50620002479291506200024b565b5090565b5b808211156200024757600081556001016200024c565b634e487b7160e01b600052604160045260246000fd5b600082601f8301126200028a57600080fd5b81516001600160401b0380821115620002a757620002a762000262565b604051601f8301601f19908116603f01168101908282118183101715620002d257620002d262000262565b81604052838152602092508683858801011115620002ef57600080fd5b600091505b83821015620003135785820183015181830184015290820190620002f4565b83821115620003255760008385830101525b9695505050505050565b600080604083850312156200034357600080fd5b82516001600160401b03808211156200035b57600080fd5b620003698683870162000278565b935060208501519150808211156200038057600080fd5b506200038f8582860162000278565b9150509250929050565b60008219821115620003bb57634e487b7160e01b600052601160045260246000fd5b500190565b600181811c90821680620003d557607f821691505b60208210811415620003f757634e487b7160e01b600052602260045260246000fd5b50919050565b61134f806200040d6000396000f3fe6080604052600436106101105760003560e01c806306fdde0314610115578063095ea7b31461014057806318160ddd1461017057806323b872dd1461018f578063313ce567146101af57806339509351146101cb57806342cbb15c146101eb57806347535d7b146101fe57806370a082311461021f578063715018a61461023f57806384a184de146102565780638da5cb5b1461026957806390d49b9d1461029657806395d89b41146102b6578063a1c04f0e146102cb578063a457c2d7146102de578063a8aa1b31146102fe578063a9059cbb1461031e578063c45a01551461033e578063db8d05ac14610366578063dd62ed3e1461037c578063f2fde38b1461039c578063f887ea40146103bc575b600080fd5b34801561012157600080fd5b5061012a6103e4565b6040516101379190611084565b60405180910390f35b34801561014c57600080fd5b5061016061015b3660046110ee565b610476565b6040519015158152602001610137565b34801561017c57600080fd5b506002545b604051908152602001610137565b34801561019b57600080fd5b506101606101aa36600461111a565b61048e565b3480156101bb57600080fd5b5060405160128152602001610137565b3480156101d757600080fd5b506101606101e63660046110ee565b6104b2565b3480156101f757600080fd5b5043610181565b34801561020a57600080fd5b5060065461016090600160a01b900460ff1681565b34801561022b57600080fd5b5061018161023a36600461115b565b6104d4565b34801561024b57600080fd5b506102546104ef565b005b61025461026436600461117f565b610503565b34801561027557600080fd5b5061027e6107f4565b6040516001600160a01b039091168152602001610137565b3480156102a257600080fd5b506102546102b136600461115b565b610803565b3480156102c257600080fd5b5061012a610872565b6102546102d936600461115b565b610881565b3480156102ea57600080fd5b506101606102f93660046110ee565b610952565b34801561030a57600080fd5b5060085461027e906001600160a01b031681565b34801561032a57600080fd5b506101606103393660046110ee565b6109cd565b34801561034a57600080fd5b5061027e73b7926c0430afb07aa7defde6da862ae0bde767bc81565b34801561037257600080fd5b5061018160075481565b34801561038857600080fd5b50610181610397366004611198565b6109db565b3480156103a857600080fd5b506102546103b736600461115b565b610a06565b3480156103c857600080fd5b5061027e739ac64cc6e4415144c455bd8e4837fea55603e5c381565b6060600380546103f3906111d1565b80601f016020809104026020016040519081016040528092919081815260200182805461041f906111d1565b801561046c5780601f106104415761010080835404028352916020019161046c565b820191906000526020600020905b81548152906001019060200180831161044f57829003601f168201915b5050505050905090565b600033610484818585610a7c565b5060019392505050565b60003361049c858285610ba0565b6104a7858585610c1a565b506001949350505050565b6000336104848185856104c583836109db565b6104cf9190611222565b610a7c565b6001600160a01b031660009081526020819052604090205490565b6104f7610e2f565b6105016000610e8e565b565b61050b610e2f565b61052a33739ac64cc6e4415144c455bd8e4837fea55603e5c383610a7c565b6000739ac64cc6e4415144c455bd8e4837fea55603e5c39050600073b7926c0430afb07aa7defde6da862ae0bde767bc9050806001600160a01b031663e6a4390530846001600160a01b031663ad5c46486040518163ffffffff1660e01b8152600401602060405180830381865afa1580156105aa573d6000803e3d6000fd5b505050506040513d601f19601f820116820180604052508101906105ce919061123a565b6040518363ffffffff1660e01b81526004016105eb929190611257565b602060405180830381865afa158015610608573d6000803e3d6000fd5b505050506040513d601f19601f8201168201806040525081019061062c919061123a565b600880546001600160a01b0319166001600160a01b039290921691821790556107ef57806001600160a01b031663c9c6539630846001600160a01b031663ad5c46486040518163ffffffff1660e01b8152600401602060405180830381865afa15801561069d573d6000803e3d6000fd5b505050506040513d601f19601f820116820180604052508101906106c1919061123a565b6040518363ffffffff1660e01b81526004016106de929190611257565b6020604051808303816000875af11580156106fd573d6000803e3d6000fd5b505050506040513d601f19601f82011682018060405250810190610721919061123a565b50816001600160a01b031663f305d719473061073c306104d4565b6000806107476107f4565b60405160e088901b6001600160e01b03191681526001600160a01b03958616600482015260248101949094526044840192909252606483015290911660848201524260a482015260c40160606040518083038185885af11580156107af573d6000803e3d6000fd5b50505050506040513d601f19601f820116820180604052508101906107d49190611271565b50506006805460ff60a01b1916600160a01b17905550436007555b505050565b6005546001600160a01b031690565b61080b610e2f565b6001600160a01b0381166108505760405162461bcd60e51b81526020600482015260076024820152661a5b9d985b1a5960ca1b60448201526064015b60405180910390fd5b600680546001600160a01b0319166001600160a01b0392909216919091179055565b6060600480546103f3906111d1565b610889610e2f565b6001600160a01b0381166108c75760405133904780156108fc02916000818181858888f193505050501580156108c3573d6000803e3d6000fd5b5050565b806001600160a01b031663a9059cbb336108e0306104d4565b6040516001600160e01b031960e085901b1681526001600160a01b03909216600483015260248201526044016020604051808303816000875af115801561092b573d6000803e3d6000fd5b505050506040513d601f19601f820116820180604052508101906108c3919061129f565b50565b6000338161096082866109db565b9050838110156109c05760405162461bcd60e51b815260206004820152602560248201527f45524332303a2064656372656173656420616c6c6f77616e63652062656c6f77604482015264207a65726f60d81b6064820152608401610847565b6104a78286868403610a7c565b600033610484818585610c1a565b6001600160a01b03918216600090815260016020908152604080832093909416825291909152205490565b610a0e610e2f565b6001600160a01b038116610a735760405162461bcd60e51b815260206004820152602660248201527f4f776e61626c653a206e6577206f776e657220697320746865207a65726f206160448201526564647265737360d01b6064820152608401610847565b61094f81610e8e565b6001600160a01b038316610ade5760405162461bcd60e51b8152602060048201526024808201527f45524332303a20617070726f76652066726f6d20746865207a65726f206164646044820152637265737360e01b6064820152608401610847565b6001600160a01b038216610b3f5760405162461bcd60e51b815260206004820152602260248201527f45524332303a20617070726f766520746f20746865207a65726f206164647265604482015261737360f01b6064820152608401610847565b6001600160a01b0383811660008181526001602090815260408083209487168084529482529182902085905590518481527f8c5be1e5ebec7d5bd14f71427d1e84f3dd0314c0f7b2291e5b200ac8c7c3b925910160405180910390a3505050565b6000610bac84846109db565b90506000198114610c145781811015610c075760405162461bcd60e51b815260206004820152601d60248201527f45524332303a20696e73756666696369656e7420616c6c6f77616e63650000006044820152606401610847565b610c148484848403610a7c565b50505050565b600654600160a01b900460ff168015610c3f5750600754610c3c90600a611222565b43105b15610e24576008546001600160a01b0383811691161415610cac5760006109c4610c6b612710846112c1565b610c7591906112e0565b600654909150610c909085906001600160a01b031683610ee0565b6000610c9c8284611302565b9050610ca9858583610ee0565b50505b6008546001600160a01b03848116911614156107ef5760006107d0610cd3612710846112c1565b610cdd91906112e0565b600654909150610cf89084906001600160a01b031683610ee0565b6000610d048284611302565b905060c8612710610d1460025490565b610d1e91906112c1565b610d2891906112e0565b811115610d825760405162461bcd60e51b815260206004820152602260248201527f43616e206e6f7420737761702065786365656420322520746f74616c537570706044820152616c7960f01b6064820152608401610847565b60c8612710610d9060025490565b610d9a91906112c1565b610da491906112e0565b81610dae866104d4565b610db89190611222565b1115610e125760405162461bcd60e51b8152602060048201526024808201527f42616c616e63654f6620646f65732065786365656420322520746f74616c537560448201526370706c7960e01b6064820152608401610847565b610e1d858583610ee0565b5050505050565b6107ef838383610ee0565b33610e386107f4565b6001600160a01b0316146105015760405162461bcd60e51b815260206004820181905260248201527f4f776e61626c653a2063616c6c6572206973206e6f7420746865206f776e65726044820152606401610847565b600580546001600160a01b038381166001600160a01b0319831681179093556040519116919082907f8be0079c531659141344cd1fd0a4f28419497f9722a3daafe3b4186f6b6457e090600090a35050565b6001600160a01b038316610f445760405162461bcd60e51b815260206004820152602560248201527f45524332303a207472616e736665722066726f6d20746865207a65726f206164604482015264647265737360d81b6064820152608401610847565b6001600160a01b038216610fa65760405162461bcd60e51b815260206004820152602360248201527f45524332303a207472616e7366657220746f20746865207a65726f206164647260448201526265737360e81b6064820152608401610847565b6001600160a01b0383166000908152602081905260409020548181101561101e5760405162461bcd60e51b815260206004820152602660248201527f45524332303a207472616e7366657220616d6f756e7420657863656564732062604482015265616c616e636560d01b6064820152608401610847565b6001600160a01b03848116600081815260208181526040808320878703905593871680835291849020805487019055925185815290927fddf252ad1be2c89b69c2b068fc378daa952ba7f163c4a11628f55a4df523b3ef910160405180910390a3610c14565b600060208083528351808285015260005b818110156110b157858101830151858201604001528201611095565b818111156110c3576000604083870101525b50601f01601f1916929092016040019392505050565b6001600160a01b038116811461094f57600080fd5b6000806040838503121561110157600080fd5b823561110c816110d9565b946020939093013593505050565b60008060006060848603121561112f57600080fd5b833561113a816110d9565b9250602084013561114a816110d9565b929592945050506040919091013590565b60006020828403121561116d57600080fd5b8135611178816110d9565b9392505050565b60006020828403121561119157600080fd5b5035919050565b600080604083850312156111ab57600080fd5b82356111b6816110d9565b915060208301356111c6816110d9565b809150509250929050565b600181811c908216806111e557607f821691505b6020821081141561120657634e487b7160e01b600052602260045260246000fd5b50919050565b634e487b7160e01b600052601160045260246000fd5b600082198211156112355761123561120c565b500190565b60006020828403121561124c57600080fd5b8151611178816110d9565b6001600160a01b0392831681529116602082015260400190565b60008060006060848603121561128657600080fd5b8351925060208401519150604084015190509250925092565b6000602082840312156112b157600080fd5b8151801515811461117857600080fd5b60008160001904831182151516156112db576112db61120c565b500290565b6000826112fd57634e487b7160e01b600052601260045260246000fd5b500490565b6000828210156113145761131461120c565b50039056fea2646970667358221220a7450baa1a824cd46ada3a16d7f51d4662ee0af089e0a17ae792ebeb97b821e764736f6c634300080a0033",
  "linkReferences": {},
  "deployedLinkReferences": {}
}